{
  "contractName": "Faucet",
  "abi": [
    {
      "inputs": [],
      "stateMutability": "nonpayable",
      "type": "constructor"
    },
    {
      "inputs": [
        {
          "internalType": "uint256",
          "name": "asked",
          "type": "uint256"
        },
        {
          "internalType": "uint256",
          "name": "max",
          "type": "uint256"
        }
      ],
      "name": "MaxWithdrawAmount",
      "type": "error"
    },
    {
      "inputs": [],
      "name": "OnlyOwner",
      "type": "error"
    },
    {
      "inputs": [],
      "name": "getOwner",
      "outputs": [
        {
          "internalType": "address",
          "name": "",
          "type": "address"
        }
      ],
      "stateMutability": "view",
      "type": "function",
      "constant": true
    },
    {
      "inputs": [],
      "name": "numberOfFunders",
      "outputs": [
        {
          "internalType": "uint256",
          "name": "",
          "type": "uint256"
        }
      ],
      "stateMutability": "view",
      "type": "function",
      "constant": true
    },
    {
      "inputs": [],
      "name": "owner",
      "outputs": [
        {
          "internalType": "address",
          "name": "",
          "type": "address"
        }
      ],
      "stateMutability": "view",
      "type": "function",
      "constant": true
    },
    {
      "inputs": [
        {
          "internalType": "address",
          "name": "newOwner",
          "type": "address"
        }
      ],
      "name": "setOwner",
      "outputs": [],
      "stateMutability": "nonpayable",
      "type": "function"
    },
    {
      "inputs": [],
      "name": "withdrawLimit",
      "outputs": [
        {
          "internalType": "uint256",
          "name": "",
          "type": "uint256"
        }
      ],
      "stateMutability": "view",
      "type": "function",
      "constant": true
    },
    {
      "stateMutability": "payable",
      "type": "receive",
      "payable": true
    },
    {
      "inputs": [],
      "name": "emitLog",
      "outputs": [
        {
          "internalType": "bytes32",
          "name": "",
          "type": "bytes32"
        }
      ],
      "stateMutability": "pure",
      "type": "function",
      "constant": true
    },
    {
      "inputs": [],
      "name": "getWithdrawLimit",
      "outputs": [
        {
          "internalType": "uint256",
          "name": "",
          "type": "uint256"
        }
      ],
      "stateMutability": "view",
      "type": "function",
      "constant": true
    },
    {
      "inputs": [
        {
          "internalType": "uint256",
          "name": "newLimit",
          "type": "uint256"
        }
      ],
      "name": "setWithdrawLimit",
      "outputs": [],
      "stateMutability": "nonpayable",
      "type": "function"
    },
    {
      "inputs": [],
      "name": "getFunders",
      "outputs": [
        {
          "internalType": "address[]",
          "name": "",
          "type": "address[]"
        }
      ],
      "stateMutability": "view",
      "type": "function",
      "constant": true
    },
    {
      "inputs": [
        {
          "internalType": "uint256",
          "name": "index",
          "type": "uint256"
        }
      ],
      "name": "getFunderAtIndex",
      "outputs": [
        {
          "internalType": "address",
          "name": "",
          "type": "address"
        }
      ],
      "stateMutability": "view",
      "type": "function",
      "constant": true
    },
    {
      "inputs": [],
      "name": "addFunds",
      "outputs": [],
      "stateMutability": "payable",
      "type": "function",
      "payable": true
    },
    {
      "inputs": [
        {
          "internalType": "uint256",
          "name": "amount",
          "type": "uint256"
        }
      ],
      "name": "withdraw",
      "outputs": [],
      "stateMutability": "nonpayable",
      "type": "function"
    }
  ],
  "bytecode": "0x608060405234801561001057600080fd5b506100203361003c60201b60201c565b61003767016345785d8a000061007f60201b60201c565b61010e565b806000806101000a81548173ffffffffffffffffffffffffffffffffffffffff021916908373ffffffffffffffffffffffffffffffffffffffff16021790555050565b60008054906101000a900473ffffffffffffffffffffffffffffffffffffffff1673ffffffffffffffffffffffffffffffffffffffff163373ffffffffffffffffffffffffffffffffffffffff1614610104576040517f5fc483c500000000000000000000000000000000000000000000000000000000815260040160405180910390fd5b8060048190555050565b610a7f8061011d6000396000f3fe6080604052600436106100ab5760003560e01c8063a6301dda11610064578063a6301dda14610192578063c218deca146101bd578063dc79a7fc146101fa578063ea63a04414610225578063f42c13bf14610250578063f848d5411461027b576100b2565b806313af4035146100b75780632e1a7d4d146100e05780634abdf2e014610109578063893d20e8146101325780638da5cb5b1461015d578063a26759cb14610188576100b2565b366100b257005b600080fd5b3480156100c357600080fd5b506100de60048036038101906100d99190610753565b6102a6565b005b3480156100ec57600080fd5b50610107600480360381019061010291906107b6565b6102e9565b005b34801561011557600080fd5b50610130600480360381019061012b91906107b6565b610380565b005b34801561013e57600080fd5b5061014761040f565b60405161015491906107f2565b60405180910390f35b34801561016957600080fd5b50610172610438565b60405161017f91906107f2565b60405180910390f35b61019061045c565b005b34801561019e57600080fd5b506101a761057b565b6040516101b4919061081c565b60405180910390f35b3480156101c957600080fd5b506101e460048036038101906101df91906107b6565b610585565b6040516101f191906107f2565b60405180910390f35b34801561020657600080fd5b5061020f6105c2565b60405161021c919061081c565b60405180910390f35b34801561023157600080fd5b5061023a6105c8565b60405161024791906108f5565b60405180910390f35b34801561025c57600080fd5b506102656106c2565b6040516102729190610930565b60405180910390f35b34801561028757600080fd5b506102906106ea565b60405161029d919061081c565b60405180910390f35b806000806101000a81548173ffffffffffffffffffffffffffffffffffffffff021916908373ffffffffffffffffffffffffffffffffffffffff16021790555050565b8060045481111561033557806004546040517f524f426400000000000000000000000000000000000000000000000000000000815260040161032c92919061094b565b60405180910390fd5b3373ffffffffffffffffffffffffffffffffffffffff166108fc839081150290604051600060405180830381858888f1935050505015801561037b573d6000803e3d6000fd5b505050565b60008054906101000a900473ffffffffffffffffffffffffffffffffffffffff1673ffffffffffffffffffffffffffffffffffffffff163373ffffffffffffffffffffffffffffffffffffffff1614610405576040517f5fc483c500000000000000000000000000000000000000000000000000000000815260040160405180910390fd5b8060048190555050565b60008060009054906101000a900473ffffffffffffffffffffffffffffffffffffffff16905090565b60008054906101000a900473ffffffffffffffffffffffffffffffffffffffff1681565b6000339050600160008273ffffffffffffffffffffffffffffffffffffffff1673ffffffffffffffffffffffffffffffffffffffff16815260200190815260200160002060009054906101000a900460ff16610578576000600360008154809291906104c7906109a3565b91905055905060018060008473ffffffffffffffffffffffffffffffffffffffff1673ffffffffffffffffffffffffffffffffffffffff16815260200190815260200160002060006101000a81548160ff021916908315150217905550816002600083815260200190815260200160002060006101000a81548173ffffffffffffffffffffffffffffffffffffffff021916908373ffffffffffffffffffffffffffffffffffffffff160217905550505b50565b6000600454905090565b60006002600083815260200190815260200160002060009054906101000a900473ffffffffffffffffffffffffffffffffffffffff169050919050565b60035481565b6060600060035467ffffffffffffffff8111156105e8576105e76109eb565b5b6040519080825280602002602001820160405280156106165781602001602082028036833780820191505090505b50905060005b6003548110156106ba576002600082815260200190815260200160002060009054906101000a900473ffffffffffffffffffffffffffffffffffffffff1682828151811061066d5761066c610a1a565b5b602002602001019073ffffffffffffffffffffffffffffffffffffffff16908173ffffffffffffffffffffffffffffffffffffffff168152505080806106b2906109a3565b91505061061c565b508091505090565b60007f68656c6c6f20776f726c64000000000000000000000000000000000000000000905090565b60045481565b600080fd5b600073ffffffffffffffffffffffffffffffffffffffff82169050919050565b6000610720826106f5565b9050919050565b61073081610715565b811461073b57600080fd5b50565b60008135905061074d81610727565b92915050565b600060208284031215610769576107686106f0565b5b60006107778482850161073e565b91505092915050565b6000819050919050565b61079381610780565b811461079e57600080fd5b50565b6000813590506107b08161078a565b92915050565b6000602082840312156107cc576107cb6106f0565b5b60006107da848285016107a1565b91505092915050565b6107ec81610715565b82525050565b600060208201905061080760008301846107e3565b92915050565b61081681610780565b82525050565b6000602082019050610831600083018461080d565b92915050565b600081519050919050565b600082825260208201905092915050565b6000819050602082019050919050565b61086c81610715565b82525050565b600061087e8383610863565b60208301905092915050565b6000602082019050919050565b60006108a282610837565b6108ac8185610842565b93506108b783610853565b8060005b838110156108e85781516108cf8882610872565b97506108da8361088a565b9250506001810190506108bb565b5085935050505092915050565b6000602082019050818103600083015261090f8184610897565b905092915050565b6000819050919050565b61092a81610917565b82525050565b60006020820190506109456000830184610921565b92915050565b6000604082019050610960600083018561080d565b61096d602083018461080d565b9392505050565b7f4e487b7100000000000000000000000000000000000000000000000000000000600052601160045260246000fd5b60006109ae82610780565b91507fffffffffffffffffffffffffffffffffffffffffffffffffffffffffffffffff82036109e0576109df610974565b5b600182019050919050565b7f4e487b7100000000000000000000000000000000000000000000000000000000600052604160045260246000fd5b7f4e487b7100000000000000000000000000000000000000000000000000000000600052603260045260246000fdfea26469706673582212207d8709c6e52d35908f72402bc81c5c8e8104aae81c047216bb44259fe2d5cfb464736f6c634300080f0033",
  "immutableReferences": {},
  "source": "// SPDX-License-Identifier: MIT\npragma solidity >=0.4.22 <0.9.0;\nimport \"./Owned.sol\";\nimport \"./Logger.sol\";\nimport \"./IFaucet.sol\";\n\ncontract Faucet is Owned, Logger, IFaucet {\n  mapping(address => bool) private funders;\n  mapping(uint256 => address) private lutFunders;\n  uint256 public numberOfFunders;\n  uint256 public withdrawLimit;\n\n  constructor() {\n    setWithdrawLimit(100000000000000000);\n  }\n\n  error MaxWithdrawAmount(uint256 asked, uint256 max);\n\n  modifier limitWithdraw(uint256 amount) {\n    if (amount > withdrawLimit) {\n      revert MaxWithdrawAmount(amount, withdrawLimit);\n    }\n    _;\n  }\n\n  receive() external payable {}\n\n  function emitLog() public pure override returns (bytes32) {\n    return \"hello world\";\n  }\n\n  function getWithdrawLimit() public view returns (uint256) {\n    return withdrawLimit;\n  }\n\n  function setWithdrawLimit(uint256 newLimit) public onlyOwner {\n    withdrawLimit = newLimit;\n  }\n\n  function getFunders() external view returns (address[] memory) {\n    address[] memory _funders = new address[](numberOfFunders);\n    for (uint256 i = 0; i < numberOfFunders; i++) {\n      _funders[i] = lutFunders[i];\n    }\n    return _funders;\n  }\n\n  function getFunderAtIndex(uint256 index) external view returns (address) {\n    return lutFunders[index];\n  }\n\n  function addFunds() external payable override {\n    address funder = msg.sender;\n    if (!funders[funder]) {\n      uint256 index = numberOfFunders++;\n      funders[funder] = true;\n      lutFunders[index] = funder;\n    }\n  }\n\n  function withdraw(uint256 amount) external override limitWithdraw(amount) {\n    payable(msg.sender).transfer(amount);\n  }\n}\n\n// const instance = await Faucet.deployed();\n\n// instance.addFunds({from: accounts[0], value: \"2000000000000000000\"})\n// instance.addFunds({from: accounts[1], value: \"2000000000000000000\"})\n\n// instance.withdraw(\"500000000000000000\", {from: accounts[1]})\n\n// instance.getFunderAtIndex(0)\n// instance.getAllFunders()\n",
  "sourcePath": "/Users/farischt/Desktop/dev/solidity/faucet/contracts/Faucet.sol",
  "compiler": {
    "name": "solc",
    "version": "0.8.15+commit.e14f2714.Emscripten.clang"
  },
  "schemaVersion": "3.4.8",
  "updatedAt": "2022-08-19T13:10:28.851Z",
  "networkType": "ethereum",
  "devdoc": {
    "kind": "dev",
    "methods": {},
    "version": 1
  },
  "userdoc": {
    "kind": "user",
    "methods": {},
    "version": 1
  }
}